{
  "contractName": "BooksOfYe",
  "abi": [
    {
      "inputs": [],
      "stateMutability": "nonpayable",
      "type": "constructor"
    },
    {
      "anonymous": false,
      "inputs": [
        {
          "indexed": true,
          "internalType": "address",
          "name": "account",
          "type": "address"
        },
        {
          "indexed": true,
          "internalType": "address",
          "name": "operator",
          "type": "address"
        },
        {
          "indexed": false,
          "internalType": "bool",
          "name": "approved",
          "type": "bool"
        }
      ],
      "name": "ApprovalForAll",
      "type": "event"
    },
    {
      "anonymous": false,
      "inputs": [
        {
          "indexed": true,
          "internalType": "address",
          "name": "previousOwner",
          "type": "address"
        },
        {
          "indexed": true,
          "internalType": "address",
          "name": "newOwner",
          "type": "address"
        }
      ],
      "name": "OwnershipTransferred",
      "type": "event"
    },
    {
      "anonymous": false,
      "inputs": [
        {
          "indexed": true,
          "internalType": "address",
          "name": "operator",
          "type": "address"
        },
        {
          "indexed": true,
          "internalType": "address",
          "name": "from",
          "type": "address"
        },
        {
          "indexed": true,
          "internalType": "address",
          "name": "to",
          "type": "address"
        },
        {
          "indexed": false,
          "internalType": "uint256[]",
          "name": "ids",
          "type": "uint256[]"
        },
        {
          "indexed": false,
          "internalType": "uint256[]",
          "name": "values",
          "type": "uint256[]"
        }
      ],
      "name": "TransferBatch",
      "type": "event"
    },
    {
      "anonymous": false,
      "inputs": [
        {
          "indexed": true,
          "internalType": "address",
          "name": "operator",
          "type": "address"
        },
        {
          "indexed": true,
          "internalType": "address",
          "name": "from",
          "type": "address"
        },
        {
          "indexed": true,
          "internalType": "address",
          "name": "to",
          "type": "address"
        },
        {
          "indexed": false,
          "internalType": "uint256",
          "name": "id",
          "type": "uint256"
        },
        {
          "indexed": false,
          "internalType": "uint256",
          "name": "value",
          "type": "uint256"
        }
      ],
      "name": "TransferSingle",
      "type": "event"
    },
    {
      "anonymous": false,
      "inputs": [
        {
          "indexed": false,
          "internalType": "string",
          "name": "value",
          "type": "string"
        },
        {
          "indexed": true,
          "internalType": "uint256",
          "name": "id",
          "type": "uint256"
        }
      ],
      "name": "URI",
      "type": "event"
    },
    {
      "stateMutability": "payable",
      "type": "fallback",
      "payable": true
    },
    {
      "inputs": [
        {
          "internalType": "address",
          "name": "account",
          "type": "address"
        },
        {
          "internalType": "uint256",
          "name": "id",
          "type": "uint256"
        }
      ],
      "name": "balanceOf",
      "outputs": [
        {
          "internalType": "uint256",
          "name": "",
          "type": "uint256"
        }
      ],
      "stateMutability": "view",
      "type": "function",
      "constant": true
    },
    {
      "inputs": [
        {
          "internalType": "address[]",
          "name": "accounts",
          "type": "address[]"
        },
        {
          "internalType": "uint256[]",
          "name": "ids",
          "type": "uint256[]"
        }
      ],
      "name": "balanceOfBatch",
      "outputs": [
        {
          "internalType": "uint256[]",
          "name": "",
          "type": "uint256[]"
        }
      ],
      "stateMutability": "view",
      "type": "function",
      "constant": true
    },
    {
      "inputs": [],
      "name": "baseURI",
      "outputs": [
        {
          "internalType": "string",
          "name": "",
          "type": "string"
        }
      ],
      "stateMutability": "view",
      "type": "function",
      "constant": true
    },
    {
      "inputs": [
        {
          "internalType": "address",
          "name": "account",
          "type": "address"
        },
        {
          "internalType": "uint256",
          "name": "id",
          "type": "uint256"
        },
        {
          "internalType": "uint256",
          "name": "value",
          "type": "uint256"
        }
      ],
      "name": "burn",
      "outputs": [],
      "stateMutability": "nonpayable",
      "type": "function"
    },
    {
      "inputs": [
        {
          "internalType": "address",
          "name": "account",
          "type": "address"
        },
        {
          "internalType": "uint256[]",
          "name": "ids",
          "type": "uint256[]"
        },
        {
          "internalType": "uint256[]",
          "name": "values",
          "type": "uint256[]"
        }
      ],
      "name": "burnBatch",
      "outputs": [],
      "stateMutability": "nonpayable",
      "type": "function"
    },
    {
      "inputs": [
        {
          "internalType": "address",
          "name": "",
          "type": "address"
        }
      ],
      "name": "cardPurchaseTracker",
      "outputs": [
        {
          "internalType": "uint256",
          "name": "",
          "type": "uint256"
        }
      ],
      "stateMutability": "view",
      "type": "function",
      "constant": true
    },
    {
      "inputs": [
        {
          "internalType": "uint256",
          "name": "id",
          "type": "uint256"
        }
      ],
      "name": "exists",
      "outputs": [
        {
          "internalType": "bool",
          "name": "",
          "type": "bool"
        }
      ],
      "stateMutability": "view",
      "type": "function",
      "constant": true
    },
    {
      "inputs": [
        {
          "internalType": "address",
          "name": "account",
          "type": "address"
        },
        {
          "internalType": "address",
          "name": "operator",
          "type": "address"
        }
      ],
      "name": "isApprovedForAll",
      "outputs": [
        {
          "internalType": "bool",
          "name": "",
          "type": "bool"
        }
      ],
      "stateMutability": "view",
      "type": "function",
      "constant": true
    },
    {
      "inputs": [],
      "name": "maxSupply",
      "outputs": [
        {
          "internalType": "uint256",
          "name": "",
          "type": "uint256"
        }
      ],
      "stateMutability": "view",
      "type": "function",
      "constant": true
    },
    {
      "inputs": [],
      "name": "mintLimit",
      "outputs": [
        {
          "internalType": "uint256",
          "name": "",
          "type": "uint256"
        }
      ],
      "stateMutability": "view",
      "type": "function",
      "constant": true
    },
    {
      "inputs": [
        {
          "internalType": "uint256",
          "name": "",
          "type": "uint256"
        }
      ],
      "name": "mintedCards",
      "outputs": [
        {
          "internalType": "uint256",
          "name": "",
          "type": "uint256"
        }
      ],
      "stateMutability": "view",
      "type": "function",
      "constant": true
    },
    {
      "inputs": [],
      "name": "owner",
      "outputs": [
        {
          "internalType": "address",
          "name": "",
          "type": "address"
        }
      ],
      "stateMutability": "view",
      "type": "function",
      "constant": true
    },
    {
      "inputs": [],
      "name": "renounceOwnership",
      "outputs": [],
      "stateMutability": "nonpayable",
      "type": "function"
    },
    {
      "inputs": [
        {
          "internalType": "address",
          "name": "from",
          "type": "address"
        },
        {
          "internalType": "address",
          "name": "to",
          "type": "address"
        },
        {
          "internalType": "uint256[]",
          "name": "ids",
          "type": "uint256[]"
        },
        {
          "internalType": "uint256[]",
          "name": "amounts",
          "type": "uint256[]"
        },
        {
          "internalType": "bytes",
          "name": "data",
          "type": "bytes"
        }
      ],
      "name": "safeBatchTransferFrom",
      "outputs": [],
      "stateMutability": "nonpayable",
      "type": "function"
    },
    {
      "inputs": [
        {
          "internalType": "address",
          "name": "from",
          "type": "address"
        },
        {
          "internalType": "address",
          "name": "to",
          "type": "address"
        },
        {
          "internalType": "uint256",
          "name": "id",
          "type": "uint256"
        },
        {
          "internalType": "uint256",
          "name": "amount",
          "type": "uint256"
        },
        {
          "internalType": "bytes",
          "name": "data",
          "type": "bytes"
        }
      ],
      "name": "safeTransferFrom",
      "outputs": [],
      "stateMutability": "nonpayable",
      "type": "function"
    },
    {
      "inputs": [
        {
          "internalType": "address",
          "name": "operator",
          "type": "address"
        },
        {
          "internalType": "bool",
          "name": "approved",
          "type": "bool"
        }
      ],
      "name": "setApprovalForAll",
      "outputs": [],
      "stateMutability": "nonpayable",
      "type": "function"
    },
    {
      "inputs": [
        {
          "internalType": "bytes4",
          "name": "interfaceId",
          "type": "bytes4"
        }
      ],
      "name": "supportsInterface",
      "outputs": [
        {
          "internalType": "bool",
          "name": "",
          "type": "bool"
        }
      ],
      "stateMutability": "view",
      "type": "function",
      "constant": true
    },
    {
      "inputs": [
        {
          "internalType": "uint256",
          "name": "id",
          "type": "uint256"
        }
      ],
      "name": "totalSupply",
      "outputs": [
        {
          "internalType": "uint256",
          "name": "",
          "type": "uint256"
        }
      ],
      "stateMutability": "view",
      "type": "function",
      "constant": true
    },
    {
      "inputs": [
        {
          "internalType": "address",
          "name": "newOwner",
          "type": "address"
        }
      ],
      "name": "transferOwnership",
      "outputs": [],
      "stateMutability": "nonpayable",
      "type": "function"
    },
    {
      "stateMutability": "payable",
      "type": "receive",
      "payable": true
    },
    {
      "inputs": [
        {
          "internalType": "uint256",
          "name": "eventNumber",
          "type": "uint256"
        },
        {
          "internalType": "uint256",
          "name": "cardId",
          "type": "uint256"
        }
      ],
      "name": "preSaleMint",
      "outputs": [],
      "stateMutability": "payable",
      "type": "function",
      "payable": true
    },
    {
      "inputs": [
        {
          "internalType": "uint256",
          "name": "eventNumber",
          "type": "uint256"
        },
        {
          "internalType": "uint256",
          "name": "cardId",
          "type": "uint256"
        }
      ],
      "name": "publicMint",
      "outputs": [],
      "stateMutability": "payable",
      "type": "function",
      "payable": true
    },
    {
      "inputs": [
        {
          "internalType": "uint256",
          "name": "eventNumber",
          "type": "uint256"
        },
        {
          "internalType": "address",
          "name": "_address",
          "type": "address"
        }
      ],
      "name": "checkWhitelist",
      "outputs": [
        {
          "internalType": "bool",
          "name": "isUserWL",
          "type": "bool"
        }
      ],
      "stateMutability": "view",
      "type": "function",
      "constant": true
    },
    {
      "inputs": [],
      "name": "viewMintedCards",
      "outputs": [
        {
          "internalType": "uint256[]",
          "name": "allMintedCards",
          "type": "uint256[]"
        }
      ],
      "stateMutability": "view",
      "type": "function",
      "constant": true
    },
    {
      "inputs": [],
      "name": "setPriceAndInventory",
      "outputs": [],
      "stateMutability": "nonpayable",
      "type": "function"
    },
    {
      "inputs": [
        {
          "internalType": "address[]",
          "name": "_addresses",
          "type": "address[]"
        },
        {
          "internalType": "uint256[]",
          "name": "cardId",
          "type": "uint256[]"
        }
      ],
      "name": "batchGiftMint",
      "outputs": [],
      "stateMutability": "nonpayable",
      "type": "function"
    },
    {
      "inputs": [
        {
          "internalType": "uint256",
          "name": "eventNumber",
          "type": "uint256"
        },
        {
          "internalType": "uint256",
          "name": "_newMin",
          "type": "uint256"
        },
        {
          "internalType": "uint256",
          "name": "_newMax",
          "type": "uint256"
        }
      ],
      "name": "editMinMaxCardId",
      "outputs": [],
      "stateMutability": "nonpayable",
      "type": "function"
    },
    {
      "inputs": [
        {
          "internalType": "uint256",
          "name": "eventNumber",
          "type": "uint256"
        },
        {
          "internalType": "bool",
          "name": "_isActive",
          "type": "bool"
        },
        {
          "internalType": "bool",
          "name": "_isPreSale",
          "type": "bool"
        },
        {
          "internalType": "bool",
          "name": "_isPublicSale",
          "type": "bool"
        }
      ],
      "name": "editSaleStatus",
      "outputs": [],
      "stateMutability": "nonpayable",
      "type": "function"
    },
    {
      "inputs": [
        {
          "internalType": "uint256",
          "name": "newLimit",
          "type": "uint256"
        }
      ],
      "name": "alterMintLimit",
      "outputs": [],
      "stateMutability": "nonpayable",
      "type": "function"
    },
    {
      "inputs": [
        {
          "internalType": "uint256",
          "name": "eventNumber",
          "type": "uint256"
        }
      ],
      "name": "viewSaleStatus",
      "outputs": [
        {
          "internalType": "uint256",
          "name": "price",
          "type": "uint256"
        },
        {
          "internalType": "bool",
          "name": "isActive",
          "type": "bool"
        },
        {
          "internalType": "bool",
          "name": "isPreSale",
          "type": "bool"
        },
        {
          "internalType": "bool",
          "name": "isPublicSale",
          "type": "bool"
        },
        {
          "internalType": "uint256",
          "name": "minCardId",
          "type": "uint256"
        },
        {
          "internalType": "uint256",
          "name": "maxCardId",
          "type": "uint256"
        }
      ],
      "stateMutability": "view",
      "type": "function",
      "constant": true
    },
    {
      "inputs": [
        {
          "internalType": "uint256",
          "name": "eventNumber",
          "type": "uint256"
        },
        {
          "internalType": "uint256",
          "name": "_newPriceInWei",
          "type": "uint256"
        }
      ],
      "name": "editSalePrice",
      "outputs": [],
      "stateMutability": "nonpayable",
      "type": "function"
    },
    {
      "inputs": [
        {
          "internalType": "address[]",
          "name": "_addresses",
          "type": "address[]"
        },
        {
          "internalType": "uint256",
          "name": "eventNumber",
          "type": "uint256"
        }
      ],
      "name": "batchAddToWhitelist",
      "outputs": [],
      "stateMutability": "nonpayable",
      "type": "function"
    },
    {
      "inputs": [
        {
          "internalType": "address[]",
          "name": "_addresses",
          "type": "address[]"
        },
        {
          "internalType": "uint256",
          "name": "eventNumber",
          "type": "uint256"
        }
      ],
      "name": "batchRemoveFromWhitelist",
      "outputs": [],
      "stateMutability": "nonpayable",
      "type": "function"
    },
    {
      "inputs": [
        {
          "internalType": "address payable",
          "name": "_to",
          "type": "address"
        }
      ],
      "name": "withdraw",
      "outputs": [],
      "stateMutability": "nonpayable",
      "type": "function"
    },
    {
      "inputs": [
        {
          "internalType": "string",
          "name": "_newURI",
          "type": "string"
        }
      ],
      "name": "setTokenURI",
      "outputs": [],
      "stateMutability": "nonpayable",
      "type": "function"
    },
    {
      "inputs": [],
      "name": "contractURI",
      "outputs": [
        {
          "internalType": "string",
          "name": "",
          "type": "string"
        }
      ],
      "stateMutability": "pure",
      "type": "function",
      "constant": true
    },
    {
      "inputs": [
        {
          "internalType": "uint256",
          "name": "_tokenId",
          "type": "uint256"
        }
      ],
      "name": "uri",
      "outputs": [
        {
          "internalType": "string",
          "name": "",
          "type": "string"
        }
      ],
      "stateMutability": "view",
      "type": "function",
      "constant": true
    }
  ],
  "bytecode": "0x60806040526103e8600755600880553480156200001b57600080fd5b50600980546200002b90620001f0565b80601f01602080910402602001604051908101604052809291908181526020018280546200005990620001f0565b8015620000aa5780601f106200007e57610100808354040283529160200191620000aa565b820191906000526020600020905b8154815290600101906020018083116200008c57829003601f168201915b5050505050620000c081620000df60201b60201c565b50620000cc33620000f8565b600580546000829052810190556200022d565b8051620000f49060029060208401906200014a565b5050565b600380546001600160a01b038381166001600160a01b0319831681179093556040519116919082907f8be0079c531659141344cd1fd0a4f28419497f9722a3daafe3b4186f6b6457e090600090a35050565b8280546200015890620001f0565b90600052602060002090601f0160209004810192826200017c5760008555620001c7565b82601f106200019757805160ff1916838001178555620001c7565b82800160010185558215620001c7579182015b82811115620001c7578251825591602001919060010190620001aa565b50620001d5929150620001d9565b5090565b5b80821115620001d55760008155600101620001da565b600181811c908216806200020557607f821691505b602082108114156200022757634e487b7160e01b600052602260045260246000fd5b50919050565b613aab806200023d6000396000f3fe6080604052600436106101fa5760003560e01c8063715018a61161010c578063d18ffd661161009a578063e985e9c51161006c578063e985e9c514610621578063eca7518d1461066a578063f242432a1461068a578063f2fde38b146106aa578063f5298aca146106ca57005b8063d18ffd66146105c3578063d5abeb01146105d6578063e0df5b6f146105ec578063e8a3d4851461060c57005b8063996517cf116100de578063996517cf14610520578063a22cb46514610536578063bd85b03914610556578063bfb9639d14610583578063cf69cd86146105a357005b8063715018a6146104bb5780638da5cb5b146104d0578063906ad486146104f857806398ae99a81461050d57005b80633a35e0011161018957806351cff8d91161015b57806351cff8d9146103f15780636a04b12c146104115780636ac4564d146104665780636b20c454146104865780636c0360eb146104a657005b80633a35e001146103555780633d1cabd1146103755780634e1273f4146103955780634f558e79146103c257005b80630e89341c116101cd5780630e89341c1461029b5780630ed2cfff146102c85780632eb2c2d6146102e85780632f5c66eb146103085780633858552d1461033557005b8062fdd58e1461020357806301ffc9a714610236578063068080e21461026657806307da09881461028657005b3661020157005b005b34801561020f57600080fd5b5061022361021e366004612db6565b6106ea565b6040519081526020015b60405180910390f35b34801561024257600080fd5b50610256610251366004612df8565b610781565b604051901515815260200161022d565b34801561027257600080fd5b50610201610281366004612e31565b6107d3565b34801561029257600080fd5b506102016108c5565b3480156102a757600080fd5b506102bb6102b6366004612e7e565b610ba0565b60405161022d9190612ef3565b3480156102d457600080fd5b506102016102e336600461304d565b610c94565b3480156102f457600080fd5b5061020161030336600461312f565b610f05565b34801561031457600080fd5b506102236103233660046131dd565b600b6020526000908152604090205481565b34801561034157600080fd5b50610201610350366004612e7e565b610f9c565b34801561036157600080fd5b506102016103703660046131fa565b610fcb565b34801561038157600080fd5b50610223610390366004612e7e565b61107f565b3480156103a157600080fd5b506103b56103b036600461304d565b6110a0565b60405161022d919061327a565b3480156103ce57600080fd5b506102566103dd366004612e7e565b600090815260046020526040902054151590565b3480156103fd57600080fd5b5061020161040c3660046131dd565b6111ca565b34801561041d57600080fd5b5061043161042c366004612e7e565b611283565b6040805196875294151560208701529215159385019390935215156060840152608083019190915260a082015260c00161022d565b34801561047257600080fd5b506102016104813660046131fa565b6113a6565b34801561049257600080fd5b506102016104a136600461328d565b611546565b3480156104b257600080fd5b506102bb611589565b3480156104c757600080fd5b50610201611617565b3480156104dc57600080fd5b506003546040516001600160a01b03909116815260200161022d565b34801561050457600080fd5b506103b561164d565b61020161051b366004613303565b6116a5565b34801561052c57600080fd5b5061022360085481565b34801561054257600080fd5b50610201610551366004613325565b611a9d565b34801561056257600080fd5b50610223610571366004612e7e565b60009081526004602052604090205490565b34801561058f57600080fd5b5061020161059e366004613303565b611aa8565b3480156105af57600080fd5b506102566105be36600461335a565b611b09565b6102016105d1366004613303565b611b52565b3480156105e257600080fd5b5061022360075481565b3480156105f857600080fd5b5061020161060736600461338a565b611db1565b34801561061857600080fd5b506102bb611dee565b34801561062d57600080fd5b5061025661063c3660046133d3565b6001600160a01b03918216600090815260016020908152604080832093909416825291909152205460ff1690565b34801561067657600080fd5b50610201610685366004613401565b611e0e565b34801561069657600080fd5b506102016106a536600461342d565b611fca565b3480156106b657600080fd5b506102016106c53660046131dd565b61200f565b3480156106d657600080fd5b506102016106e5366004613496565b6120aa565b60006001600160a01b03831661075b5760405162461bcd60e51b815260206004820152602b60248201527f455243313135353a2062616c616e636520717565727920666f7220746865207a60448201526a65726f206164647265737360a81b60648201526084015b60405180910390fd5b506000908152602081815260408083206001600160a01b03949094168352929052205490565b60006001600160e01b03198216636cdb3d1360e11b14806107b257506001600160e01b031982166303a24d0760e21b145b806107cd57506301ffc9a760e01b6001600160e01b03198316145b92915050565b6003546001600160a01b031633146107fd5760405162461bcd60e51b8152600401610752906134cb565b600484111561080b57600080fd5b826005858154811061081f5761081f613500565b906000526020600020906005020160010160006101000a81548160ff021916908315150217905550816005858154811061085b5761085b613500565b906000526020600020906005020160010160016101000a81548160ff021916908315150217905550806005858154811061089757610897613500565b906000526020600020906005020160010160026101000a81548160ff02191690831515021790555050505050565b6003546001600160a01b031633146108ef5760405162461bcd60e51b8152600401610752906134cb565b6702c68af0bb140000600560008154811061090c5761090c613500565b906000526020600020906005020160000181905550670853a0d2313c0000600560018154811061093e5761093e613500565b9060005260206000209060050201600001819055506718fae27693b40000600560028154811061097057610970613500565b906000526020600020906005020160000181905550674af0a763bb1c000060056003815481106109a2576109a2613500565b90600052602060002090600502016000018190555067e0d1f62b3154000060056004815481106109d4576109d4613500565b906000526020600020906005020160000181905550600060056000815481106109ff576109ff613500565b90600052602060002090600502016002018190555060c86005600181548110610a2a57610a2a613500565b9060005260206000209060050201600201819055506101906005600281548110610a5657610a56613500565b9060005260206000209060050201600201819055506102586005600381548110610a8257610a82613500565b9060005260206000209060050201600201819055506103206005600481548110610aae57610aae613500565b90600052602060002090600502016002018190555060c76005600081548110610ad957610ad9613500565b90600052602060002090600502016003018190555061018f6005600181548110610b0557610b05613500565b9060005260206000209060050201600301819055506102576005600281548110610b3157610b31613500565b90600052602060002090600502016003018190555061031f6005600381548110610b5d57610b5d613500565b9060005260206000209060050201600301819055506103e76005600481548110610b8957610b89613500565b906000526020600020906005020160030181905550565b6000818152600a60205260409020805460609190610bbd90613516565b159050610c62576000828152600a602052604090208054610bdd90613516565b80601f0160208091040260200160405190810160405280929190818152602001828054610c0990613516565b8015610c565780601f10610c2b57610100808354040283529160200191610c56565b820191906000526020600020905b815481529060010190602001808311610c3957829003601f168201915b50505050509050919050565b6009610c6d836120ed565b604051602001610c7e92919061356d565b6040516020818303038152906040529050919050565b6003546001600160a01b03163314610cbe5760405162461bcd60e51b8152600401610752906134cb565b60005b8251811015610f00576103e8828281518110610cdf57610cdf613500565b602002602001015110610d445760405162461bcd60e51b815260206004820152602760248201527f5468652043617264204e756d6265722053656c656374656420446f6573204e6f6044820152661d08115e1a5cdd60ca1b6064820152608401610752565b60008251600754610d55919061363e565b1015610db75760405162461bcd60e51b815260206004820152602b60248201527f536f7272792c205468657265204172656e277420416e796d6f7265204176616960448201526a6c61626c6520436172647360a81b6064820152608401610752565b610de8828281518110610dcc57610dcc613500565b6020026020010151600090815260046020526040902054151590565b15610e4d5760405162461bcd60e51b815260206004820152602f60248201527f4120436172642053656c656374656420416c72656164792042656c6f6e67732060448201526e546f20536f6d656f6e6520456c736560881b6064820152608401610752565b610ea6838281518110610e6257610e62613500565b6020026020010151838381518110610e7c57610e7c613500565b6020026020010151600160405180604001604052806002815260200161060f60f31b8152506121f3565b8151600754610eb5919061363e565b6007819055506006828281518110610ecf57610ecf613500565b6020908102919091018101518254600181018455600093845291909220015580610ef881613655565b915050610cc1565b505050565b6001600160a01b038516331480610f215750610f21853361063c565b610f885760405162461bcd60e51b815260206004820152603260248201527f455243313135353a207472616e736665722063616c6c6572206973206e6f74206044820152711bdddb995c881b9bdc88185c1c1c9bdd995960721b6064820152608401610752565b610f958585858585612303565b5050505050565b6003546001600160a01b03163314610fc65760405162461bcd60e51b8152600401610752906134cb565b600855565b6003546001600160a01b03163314610ff55760405162461bcd60e51b8152600401610752906134cb565b60005b8251811015610f005760016005838154811061101657611016613500565b9060005260206000209060050201600401600085848151811061103b5761103b613500565b6020908102919091018101516001600160a01b03168252810191909152604001600020805460ff19169115159190911790558061107781613655565b915050610ff8565b6006818154811061108f57600080fd5b600091825260209091200154905081565b606081518351146111055760405162461bcd60e51b815260206004820152602960248201527f455243313135353a206163636f756e747320616e6420696473206c656e677468604482015268040dad2e6dac2e8c6d60bb1b6064820152608401610752565b6000835167ffffffffffffffff81111561112157611121612f06565b60405190808252806020026020018201604052801561114a578160200160208202803683370190505b50905060005b84518110156111c25761119585828151811061116e5761116e613500565b602002602001015185838151811061118857611188613500565b60200260200101516106ea565b8282815181106111a7576111a7613500565b60209081029190910101526111bb81613655565b9050611150565b509392505050565b6003546001600160a01b031633146111f45760405162461bcd60e51b8152600401610752906134cb565b6001600160a01b03811661124a5760405162461bcd60e51b815260206004820152601d60248201527f546f6b656e2063616e6e6f74206265207a65726f20616464726573732e0000006044820152606401610752565b6040516001600160a01b038216904780156108fc02916000818181858888f1935050505015801561127f573d6000803e3d6000fd5b5050565b6000806000806000806005878154811061129f5761129f613500565b9060005260206000209060050201600001549550600587815481106112c6576112c6613500565b906000526020600020906005020160010160009054906101000a900460ff169450600587815481106112fa576112fa613500565b906000526020600020906005020160010160019054906101000a900460ff1693506005878154811061132e5761132e613500565b906000526020600020906005020160010160029054906101000a900460ff1692506005878154811061136257611362613500565b90600052602060002090600502016002015491506005878154811061138957611389613500565b906000526020600020906005020160030154905091939550919395565b6003546001600160a01b031633146113d05760405162461bcd60e51b8152600401610752906134cb565b60005b8251811015610f0057600582815481106113ef576113ef613500565b9060005260206000209060050201600401600084838151811061141457611414613500565b6020908102919091018101516001600160a01b031682528101919091526040016000205460ff166114c85760405162461bcd60e51b815260206004820152605260248201527f4f6e65206f6620746865736520757365727320697320616c7265616479206e6f60448201527f74206f6e20574c2e205573652074686520436865636b2057686974654c6973746064820152712066756e6374696f6e20746f20736f6c766560701b608482015260a401610752565b6000600583815481106114dd576114dd613500565b9060005260206000209060050201600401600085848151811061150257611502613500565b6020908102919091018101516001600160a01b03168252810191909152604001600020805460ff19169115159190911790558061153e81613655565b9150506113d3565b6001600160a01b0383163314806115625750611562833361063c565b61157e5760405162461bcd60e51b815260040161075290613670565b610f008383836124ad565b6009805461159690613516565b80601f01602080910402602001604051908101604052809291908181526020018280546115c290613516565b801561160f5780601f106115e45761010080835404028352916020019161160f565b820191906000526020600020905b8154815290600101906020018083116115f257829003601f168201915b505050505081565b6003546001600160a01b031633146116415760405162461bcd60e51b8152600401610752906134cb565b61164b600061263b565b565b6060600680548060200260200160405190810160405280929190818152602001828054801561169b57602002820191906000526020600020905b815481526020019060010190808311611687575b5050505050905090565b6000600583815481106116ba576116ba613500565b9060005260206000209060050201600001549050600060075490506000600585815481106116ea576116ea613500565b906000526020600020906005020160020154905060006005868154811061171357611713613500565b6000918252602090912060036005909202010154905032331461176d5760405162461bcd60e51b81526020600482015260126024820152714e6f2050726f787920436f6e74726163747360701b6044820152606401610752565b6005868154811061178057611780613500565b600091825260209091206001600590920201015460ff166117d85760405162461bcd60e51b815260206004820152601260248201527153616c65204973204e6f742041637469766560701b6044820152606401610752565b600586815481106117eb576117eb613500565b906000526020600020906005020160010160019054906101000a900460ff1615801561184557506005868154811061182557611825613500565b906000526020600020906005020160010160029054906101000a900460ff165b6118835760405162461bcd60e51b815260206004820152600f60248201526e5075626c6963204e6f74204c69766560881b6044820152606401610752565b8185101580156118935750808511155b6118d35760405162461bcd60e51b815260206004820152601160248201527043617264204e6f7420466f722053616c6560781b6044820152606401610752565b60006118e060018561363e565b10156119195760405162461bcd60e51b815260206004820152600860248201526714dbdb190813dd5d60c21b6044820152606401610752565b6000858152600460205260409020541561196e5760405162461bcd60e51b815260206004820152601660248201527510d85c9908125cc8105b1c9958591e48135a5b9d195960521b6044820152606401610752565b600854336000908152600b602052604090205414156119c45760405162461bcd60e51b8152602060048201526012602482015271135a5b9d08131a5b5a5d0814995858da195960721b6044820152606401610752565b83341015611a0c5760405162461bcd60e51b8152602060048201526015602482015274139bdd08115b9bdd59da08115d1a195c8814d95b9d605a1b6044820152606401610752565b611a2833866001604051806020016040528060008152506121f3565b611a3360018461363e565b600755336000908152600b6020526040902054611a519060016136b9565b336000908152600b60205260408120919091556006805460018101825591527ff652222313e28459528d920b65115c16c04f3efc82aaedc97be59f3f377c0d3f01949094555050505050565b61127f33838361268d565b6003546001600160a01b03163314611ad25760405162461bcd60e51b8152600401610752906134cb565b6004821115611ae057600080fd5b8060058381548110611af457611af4613500565b60009182526020909120600590910201555050565b600060058381548110611b1e57611b1e613500565b600091825260208083206001600160a01b03861684526004600590930201919091019052604090205460ff16905092915050565b600060058381548110611b6757611b67613500565b906000526020600020906005020160000154905060006007549050600060058581548110611b9757611b97613500565b9060005260206000209060050201600201549050600060058681548110611bc057611bc0613500565b906000526020600020906005020160030154905060058681548110611be757611be7613500565b600091825260208083203384526004600590930201919091019052604090205460ff16611c565760405162461bcd60e51b815260206004820152601b60248201527f596f75204172656e2774204f6e205468652057686974656c69737400000000006044820152606401610752565b323314611c9a5760405162461bcd60e51b81526020600482015260126024820152714e6f2050726f787920436f6e74726163747360701b6044820152606401610752565b60058681548110611cad57611cad613500565b600091825260209091206001600590920201015460ff16611d055760405162461bcd60e51b815260206004820152601260248201527153616c65204973204e6f742041637469766560701b6044820152606401610752565b60058681548110611d1857611d18613500565b906000526020600020906005020160010160019054906101000a900460ff168015611d72575060058681548110611d5157611d51613500565b906000526020600020906005020160010160029054906101000a900460ff16155b6118835760405162461bcd60e51b815260206004820152601060248201526f50726553616c65204e6f74204c69766560801b6044820152606401610752565b6003546001600160a01b03163314611ddb5760405162461bcd60e51b8152600401610752906134cb565b805161127f906009906020840190612d08565b6060604051806060016040528060358152602001613a4160359139905090565b6003546001600160a01b03163314611e385760405162461bcd60e51b8152600401610752906134cb565b6103e78210611ea05760405162461bcd60e51b815260206004820152602e60248201527f596f7572206e6577206d696e696d756d206973206569746865722062656c6f7760448201526d2030206f72206f7665722039393960901b6064820152608401610752565b6103e78110611f085760405162461bcd60e51b815260206004820152602e60248201527f596f7572206e6577206d6178696d756d206973206569746865722062656c6f7760448201526d2030206f72206f7665722039393960901b6064820152608401610752565b80821415611f735760405162461bcd60e51b815260206004820152603260248201527f596f7572206d696e696d756d20616e64206d6178696d756d2063616e6e6f74206044820152713132903a34329039b0b6b290373ab6b132b960711b6064820152608401610752565b8160058481548110611f8757611f87613500565b9060005260206000209060050201600201819055508060058481548110611fb057611fb0613500565b906000526020600020906005020160030181905550505050565b6001600160a01b038516331480611fe65750611fe6853361063c565b6120025760405162461bcd60e51b815260040161075290613670565b610f95858585858561276e565b6003546001600160a01b031633146120395760405162461bcd60e51b8152600401610752906134cb565b6001600160a01b03811661209e5760405162461bcd60e51b815260206004820152602660248201527f4f776e61626c653a206e6577206f776e657220697320746865207a65726f206160448201526564647265737360d01b6064820152608401610752565b6120a78161263b565b50565b6001600160a01b0383163314806120c657506120c6833361063c565b6120e25760405162461bcd60e51b815260040161075290613670565b610f0083838361288b565b6060816121115750506040805180820190915260018152600360fc1b602082015290565b8160005b811561213b578061212581613655565b91506121349050600a836136e7565b9150612115565b60008167ffffffffffffffff81111561215657612156612f06565b6040519080825280601f01601f191660200182016040528015612180576020820181803683370190505b5090505b84156121eb5761219560018361363e565b91506121a2600a866136fb565b6121ad9060306136b9565b60f81b8183815181106121c2576121c2613500565b60200101906001600160f81b031916908160001a9053506121e4600a866136e7565b9450612184565b949350505050565b6001600160a01b0384166122535760405162461bcd60e51b815260206004820152602160248201527f455243313135353a206d696e7420746f20746865207a65726f206164647265736044820152607360f81b6064820152608401610752565b33612273816000876122648861298c565b61226d8861298c565b876129d7565b6000848152602081815260408083206001600160a01b0389168452909152812080548592906122a39084906136b9565b909155505060408051858152602081018590526001600160a01b0380881692600092918516917fc3d58168c5ae7397731d063d5bbf3d657854427343f4c083240f7aacaa2d0f62910160405180910390a4610f95816000878787876129e5565b81518351146123245760405162461bcd60e51b81526004016107529061370f565b6001600160a01b03841661234a5760405162461bcd60e51b815260040161075290613757565b336123598187878787876129d7565b60005b845181101561243f57600085828151811061237957612379613500565b60200260200101519050600085838151811061239757612397613500565b602090810291909101810151600084815280835260408082206001600160a01b038e1683529093529190912054909150818110156123e75760405162461bcd60e51b81526004016107529061379c565b6000838152602081815260408083206001600160a01b038e8116855292528083208585039055908b168252812080548492906124249084906136b9565b925050819055505050508061243890613655565b905061235c565b50846001600160a01b0316866001600160a01b0316826001600160a01b03167f4a39dc06d4c0dbc64b70af90fd698a233a518aa5d07e595d983b8c0526c8f7fb878760405161248f9291906137e6565b60405180910390a46124a5818787878787612b41565b505050505050565b6001600160a01b0383166124d35760405162461bcd60e51b81526004016107529061380b565b80518251146124f45760405162461bcd60e51b81526004016107529061370f565b6000339050612517818560008686604051806020016040528060008152506129d7565b60005b83518110156125dc57600084828151811061253757612537613500565b60200260200101519050600084838151811061255557612555613500565b602090810291909101810151600084815280835260408082206001600160a01b038c1683529093529190912054909150818110156125a55760405162461bcd60e51b81526004016107529061384e565b6000928352602083815260408085206001600160a01b038b16865290915290922091039055806125d481613655565b91505061251a565b5060006001600160a01b0316846001600160a01b0316826001600160a01b03167f4a39dc06d4c0dbc64b70af90fd698a233a518aa5d07e595d983b8c0526c8f7fb868660405161262d9291906137e6565b60405180910390a450505050565b600380546001600160a01b038381166001600160a01b0319831681179093556040519116919082907f8be0079c531659141344cd1fd0a4f28419497f9722a3daafe3b4186f6b6457e090600090a35050565b816001600160a01b0316836001600160a01b031614156127015760405162461bcd60e51b815260206004820152602960248201527f455243313135353a2073657474696e6720617070726f76616c20737461747573604482015268103337b91039b2b63360b91b6064820152608401610752565b6001600160a01b03838116600081815260016020908152604080832094871680845294825291829020805460ff191686151590811790915591519182527f17307eab39ab6107e8899845ad3d59bd9653f200f220920489ca2b5937696c31910160405180910390a3505050565b6001600160a01b0384166127945760405162461bcd60e51b815260040161075290613757565b336127a48187876122648861298c565b6000848152602081815260408083206001600160a01b038a168452909152902054838110156127e55760405162461bcd60e51b81526004016107529061379c565b6000858152602081815260408083206001600160a01b038b81168552925280832087850390559088168252812080548692906128229084906136b9565b909155505060408051868152602081018690526001600160a01b03808916928a821692918616917fc3d58168c5ae7397731d063d5bbf3d657854427343f4c083240f7aacaa2d0f62910160405180910390a46128828288888888886129e5565b50505050505050565b6001600160a01b0383166128b15760405162461bcd60e51b81526004016107529061380b565b336128e0818560006128c28761298c565b6128cb8761298c565b604051806020016040528060008152506129d7565b6000838152602081815260408083206001600160a01b0388168452909152902054828110156129215760405162461bcd60e51b81526004016107529061384e565b6000848152602081815260408083206001600160a01b03898116808652918452828520888703905582518981529384018890529092908616917fc3d58168c5ae7397731d063d5bbf3d657854427343f4c083240f7aacaa2d0f62910160405180910390a45050505050565b604080516001808252818301909252606091600091906020808301908036833701905050905082816000815181106129c6576129c6613500565b602090810291909101015292915050565b6124a5868686868686612bfc565b6001600160a01b0384163b156124a55760405163f23a6e6160e01b81526001600160a01b0385169063f23a6e6190612a299089908990889088908890600401613892565b6020604051808303816000875af1925050508015612a64575060408051601f3d908101601f19168201909252612a61918101906138d7565b60015b612b1157612a706138f4565b806308c379a01415612aaa5750612a85613910565b80612a905750612aac565b8060405162461bcd60e51b81526004016107529190612ef3565b505b60405162461bcd60e51b815260206004820152603460248201527f455243313135353a207472616e7366657220746f206e6f6e20455243313135356044820152732932b1b2b4bb32b91034b6b83632b6b2b73a32b960611b6064820152608401610752565b6001600160e01b0319811663f23a6e6160e01b146128825760405162461bcd60e51b81526004016107529061399a565b6001600160a01b0384163b156124a55760405163bc197c8160e01b81526001600160a01b0385169063bc197c8190612b8590899089908890889088906004016139e2565b6020604051808303816000875af1925050508015612bc0575060408051601f3d908101601f19168201909252612bbd918101906138d7565b60015b612bcc57612a706138f4565b6001600160e01b0319811663bc197c8160e01b146128825760405162461bcd60e51b81526004016107529061399a565b6001600160a01b038516612c835760005b8351811015612c8157828181518110612c2857612c28613500565b602002602001015160046000868481518110612c4657612c46613500565b602002602001015181526020019081526020016000206000828254612c6b91906136b9565b90915550612c7a905081613655565b9050612c0d565b505b6001600160a01b0384166124a55760005b835181101561288257828181518110612caf57612caf613500565b602002602001015160046000868481518110612ccd57612ccd613500565b602002602001015181526020019081526020016000206000828254612cf2919061363e565b90915550612d01905081613655565b9050612c94565b828054612d1490613516565b90600052602060002090601f016020900481019282612d365760008555612d7c565b82601f10612d4f57805160ff1916838001178555612d7c565b82800160010185558215612d7c579182015b82811115612d7c578251825591602001919060010190612d61565b50612d88929150612d8c565b5090565b5b80821115612d885760008155600101612d8d565b6001600160a01b03811681146120a757600080fd5b60008060408385031215612dc957600080fd5b8235612dd481612da1565b946020939093013593505050565b6001600160e01b0319811681146120a757600080fd5b600060208284031215612e0a57600080fd5b8135612e1581612de2565b9392505050565b80358015158114612e2c57600080fd5b919050565b60008060008060808587031215612e4757600080fd5b84359350612e5760208601612e1c565b9250612e6560408601612e1c565b9150612e7360608601612e1c565b905092959194509250565b600060208284031215612e9057600080fd5b5035919050565b60005b83811015612eb2578181015183820152602001612e9a565b83811115612ec1576000848401525b50505050565b60008151808452612edf816020860160208601612e97565b601f01601f19169290920160200192915050565b602081526000612e156020830184612ec7565b634e487b7160e01b600052604160045260246000fd5b601f8201601f1916810167ffffffffffffffff81118282101715612f4257612f42612f06565b6040525050565b600067ffffffffffffffff821115612f6357612f63612f06565b5060051b60200190565b600082601f830112612f7e57600080fd5b81356020612f8b82612f49565b604051612f988282612f1c565b83815260059390931b8501820192828101915086841115612fb857600080fd5b8286015b84811015612fdc578035612fcf81612da1565b8352918301918301612fbc565b509695505050505050565b600082601f830112612ff857600080fd5b8135602061300582612f49565b6040516130128282612f1c565b83815260059390931b850182019282810191508684111561303257600080fd5b8286015b84811015612fdc5780358352918301918301613036565b6000806040838503121561306057600080fd5b823567ffffffffffffffff8082111561307857600080fd5b61308486838701612f6d565b9350602085013591508082111561309a57600080fd5b506130a785828601612fe7565b9150509250929050565b600067ffffffffffffffff8311156130cb576130cb612f06565b6040516130e2601f8501601f191660200182612f1c565b8091508381528484840111156130f757600080fd5b83836020830137600060208583010152509392505050565b600082601f83011261312057600080fd5b612e15838335602085016130b1565b600080600080600060a0868803121561314757600080fd5b853561315281612da1565b9450602086013561316281612da1565b9350604086013567ffffffffffffffff8082111561317f57600080fd5b61318b89838a01612fe7565b945060608801359150808211156131a157600080fd5b6131ad89838a01612fe7565b935060808801359150808211156131c357600080fd5b506131d08882890161310f565b9150509295509295909350565b6000602082840312156131ef57600080fd5b8135612e1581612da1565b6000806040838503121561320d57600080fd5b823567ffffffffffffffff81111561322457600080fd5b61323085828601612f6d565b95602094909401359450505050565b600081518084526020808501945080840160005b8381101561326f57815187529582019590820190600101613253565b509495945050505050565b602081526000612e15602083018461323f565b6000806000606084860312156132a257600080fd5b83356132ad81612da1565b9250602084013567ffffffffffffffff808211156132ca57600080fd5b6132d687838801612fe7565b935060408601359150808211156132ec57600080fd5b506132f986828701612fe7565b9150509250925092565b6000806040838503121561331657600080fd5b50508035926020909101359150565b6000806040838503121561333857600080fd5b823561334381612da1565b915061335160208401612e1c565b90509250929050565b6000806040838503121561336d57600080fd5b82359150602083013561337f81612da1565b809150509250929050565b60006020828403121561339c57600080fd5b813567ffffffffffffffff8111156133b357600080fd5b8201601f810184136133c457600080fd5b6121eb848235602084016130b1565b600080604083850312156133e657600080fd5b82356133f181612da1565b9150602083013561337f81612da1565b60008060006060848603121561341657600080fd5b505081359360208301359350604090920135919050565b600080600080600060a0868803121561344557600080fd5b853561345081612da1565b9450602086013561346081612da1565b93506040860135925060608601359150608086013567ffffffffffffffff81111561348a57600080fd5b6131d08882890161310f565b6000806000606084860312156134ab57600080fd5b83356134b681612da1565b95602085013595506040909401359392505050565b6020808252818101527f4f776e61626c653a2063616c6c6572206973206e6f7420746865206f776e6572604082015260600190565b634e487b7160e01b600052603260045260246000fd5b600181811c9082168061352a57607f821691505b6020821081141561354b57634e487b7160e01b600052602260045260246000fd5b50919050565b60008151613563818560208601612e97565b9290920192915050565b600080845481600182811c91508083168061358957607f831692505b60208084108214156135a957634e487b7160e01b86526022600452602486fd5b8180156135bd57600181146135ce576135fb565b60ff198616895284890196506135fb565b60008b81526020902060005b868110156135f35781548b8201529085019083016135da565b505084890196505b50505050505061361f61360e8286613551565b64173539b7b760d91b815260050190565b95945050505050565b634e487b7160e01b600052601160045260246000fd5b60008282101561365057613650613628565b500390565b600060001982141561366957613669613628565b5060010190565b60208082526029908201527f455243313135353a2063616c6c6572206973206e6f74206f776e6572206e6f7260408201526808185c1c1c9bdd995960ba1b606082015260800190565b600082198211156136cc576136cc613628565b500190565b634e487b7160e01b600052601260045260246000fd5b6000826136f6576136f66136d1565b500490565b60008261370a5761370a6136d1565b500690565b60208082526028908201527f455243313135353a2069647320616e6420616d6f756e7473206c656e677468206040820152670dad2e6dac2e8c6d60c31b606082015260800190565b60208082526025908201527f455243313135353a207472616e7366657220746f20746865207a65726f206164604082015264647265737360d81b606082015260800190565b6020808252602a908201527f455243313135353a20696e73756666696369656e742062616c616e636520666f60408201526939103a3930b739b332b960b11b606082015260800190565b6040815260006137f9604083018561323f565b828103602084015261361f818561323f565b60208082526023908201527f455243313135353a206275726e2066726f6d20746865207a65726f206164647260408201526265737360e81b606082015260800190565b60208082526024908201527f455243313135353a206275726e20616d6f756e7420657863656564732062616c604082015263616e636560e01b606082015260800190565b6001600160a01b03868116825285166020820152604081018490526060810183905260a0608082018190526000906138cc90830184612ec7565b979650505050505050565b6000602082840312156138e957600080fd5b8151612e1581612de2565b600060033d111561390d5760046000803e5060005160e01c5b90565b600060443d101561391e5790565b6040516003193d81016004833e81513d67ffffffffffffffff816024840111818411171561394e57505050505090565b82850191508151818111156139665750505050505090565b843d87010160208285010111156139805750505050505090565b61398f60208286010187612f1c565b509095945050505050565b60208082526028908201527f455243313135353a204552433131353552656365697665722072656a656374656040820152676420746f6b656e7360c01b606082015260800190565b6001600160a01b0386811682528516602082015260a060408201819052600090613a0e9083018661323f565b8281036060840152613a20818661323f565b90508281036080840152613a348185612ec7565b9897505050505050505056fe697066733a2f2f516d6343566e6e52697937544167524548784b4a4a72635a4c4353426d7a3266596d314c756d35766a5659364765a26469706673582212204eb54d9730e1bb35e9cfa7e75505c226a0d000d7564d12cab20c073f6d8ccbea64736f6c634300080b0033",
  "immutableReferences": {},
  "source": "// SPDX-License-Identifier: GPL-3.0\r\n\r\npragma solidity ^0.8.0;\r\n\r\nimport \"@openzeppelin/contracts/token/ERC1155/ERC1155.sol\";\r\nimport \"@openzeppelin/contracts/access/Ownable.sol\";\r\nimport \"@openzeppelin/contracts/utils/Strings.sol\";\r\nimport \"@openzeppelin/contracts/token/ERC1155/extensions/ERC1155Burnable.sol\";\r\nimport \"@openzeppelin/contracts/token/ERC1155/extensions/ERC1155Supply.sol\";\r\n\r\ncontract BooksOfYe is ERC1155, Ownable, ERC1155Burnable, ERC1155Supply {\r\n    struct SaleEvent {\r\n        uint256 price;\r\n        bool isActive;\r\n        bool isPreSale;\r\n        bool isPublicSale;\r\n        uint256 minCardId;\r\n        uint256 maxCardId;\r\n        mapping(address => bool) whitelist;\r\n    }\r\n\r\n    SaleEvent[] saleEvents;\r\n    uint256[] public mintedCards;\r\n\r\n    uint256 public maxSupply = 1000;\r\n    uint256 public mintLimit = 8;\r\n    string public baseURI;\r\n\r\n    mapping(uint256 => string) private _URIS;\r\n    mapping(address => uint256) public cardPurchaseTracker;\r\n    mapping(address => bool) private luckTracker;\r\n\r\n    constructor() ERC1155(baseURI) {\r\n        SaleEvent storage saleEvent1 = saleEvents.push();\r\n        SaleEvent storage saleEvent2 = saleEvents.push();\r\n        SaleEvent storage saleEvent3 = saleEvents.push();\r\n        SaleEvent storage saleEvent4 = saleEvents.push();\r\n        SaleEvent storage saleEvent5 = saleEvents.push();\r\n    }\r\n\r\n    //Public Functions\r\n\r\n    function preSaleMint(uint256 eventNumber, uint256 cardId) external payable {\r\n        uint256 price = saleEvents[eventNumber].price;\r\n        uint256 _maxSupply = maxSupply;\r\n        uint256 minCardId = saleEvents[eventNumber].minCardId;\r\n        uint256 maxCardId = saleEvents[eventNumber].maxCardId;\r\n\r\n        require(\r\n            saleEvents[eventNumber].whitelist[msg.sender],\r\n            \"You Aren't On The Whitelist\"\r\n        );\r\n        require(tx.origin == msg.sender, \"No Proxy Contracts\");\r\n        require(saleEvents[eventNumber].isActive, \"Sale Is Not Active\");\r\n        require(\r\n            saleEvents[eventNumber].isPreSale &&\r\n                !saleEvents[eventNumber].isPublicSale,\r\n            \"PreSale Not Live\"\r\n        );\r\n        require(\r\n            cardId >= minCardId && cardId <= maxCardId,\r\n            \"Card Not For Sale\"\r\n        );\r\n        require(_maxSupply - 1 >= 0, \"Sold Out\");\r\n        require(!exists(cardId), \"Card Is Already Minted\");\r\n        require(\r\n            cardPurchaseTracker[msg.sender] != mintLimit,\r\n            \"Mint Limit Reached\"\r\n        );\r\n        require(msg.value >= price, \"Not Enough Ether Sent\");\r\n\r\n        _mint(msg.sender, cardId, 1, \"\");\r\n\r\n        maxSupply = _maxSupply - 1;\r\n        cardPurchaseTracker[msg.sender] = cardPurchaseTracker[msg.sender] + 1;\r\n        mintedCards.push(cardId);\r\n    }\r\n\r\n    function publicMint(uint256 eventNumber, uint256 cardId) external payable {\r\n        uint256 price = saleEvents[eventNumber].price;\r\n        uint256 _maxSupply = maxSupply;\r\n        uint256 minCardId = saleEvents[eventNumber].minCardId;\r\n        uint256 maxCardId = saleEvents[eventNumber].maxCardId;\r\n\r\n        require(tx.origin == msg.sender, \"No Proxy Contracts\");\r\n        require(saleEvents[eventNumber].isActive, \"Sale Is Not Active\");\r\n        require(\r\n            !saleEvents[eventNumber].isPreSale &&\r\n                saleEvents[eventNumber].isPublicSale,\r\n            \"Public Not Live\"\r\n        );\r\n        require(\r\n            cardId >= minCardId && cardId <= maxCardId,\r\n            \"Card Not For Sale\"\r\n        );\r\n        require(_maxSupply - 1 >= 0, \"Sold Out\");\r\n        require(!exists(cardId), \"Card Is Already Minted\");\r\n        require(\r\n            cardPurchaseTracker[msg.sender] != mintLimit,\r\n            \"Mint Limit Reached\"\r\n        );\r\n        require(msg.value >= price, \"Not Enough Ether Sent\");\r\n\r\n        _mint(msg.sender, cardId, 1, \"\");\r\n\r\n        maxSupply = _maxSupply - 1;\r\n        cardPurchaseTracker[msg.sender] = cardPurchaseTracker[msg.sender] + 1;\r\n        mintedCards.push(cardId);\r\n    }\r\n\r\n    function checkWhitelist(uint256 eventNumber, address _address)\r\n        external\r\n        view\r\n        returns (bool isUserWL)\r\n    {\r\n        isUserWL = saleEvents[eventNumber].whitelist[_address];\r\n        return isUserWL;\r\n    }\r\n\r\n    function viewMintedCards()\r\n        external\r\n        view\r\n        returns (uint256[] memory allMintedCards)\r\n    {\r\n        allMintedCards = mintedCards;\r\n        return allMintedCards;\r\n    }\r\n\r\n    //Only Owner Functions\r\n\r\n    function setPriceAndInventory() external onlyOwner {\r\n        saleEvents[0].price = 200000000000000000;\r\n        saleEvents[1].price = 600000000000000000;\r\n        saleEvents[2].price = 1800000000000000000;\r\n        saleEvents[3].price = 5400000000000000000;\r\n        saleEvents[4].price = 16200000000000000000;\r\n        saleEvents[0].minCardId = 0;\r\n        saleEvents[1].minCardId = 200;\r\n        saleEvents[2].minCardId = 400;\r\n        saleEvents[3].minCardId = 600;\r\n        saleEvents[4].minCardId = 800;\r\n        saleEvents[0].maxCardId = 199;\r\n        saleEvents[1].maxCardId = 399;\r\n        saleEvents[2].maxCardId = 599;\r\n        saleEvents[3].maxCardId = 799;\r\n        saleEvents[4].maxCardId = 999;\r\n    }\r\n\r\n    function batchGiftMint(address[] memory _addresses, uint256[] memory cardId)\r\n        external\r\n        onlyOwner\r\n    {\r\n        for (uint256 i = 0; i < _addresses.length; i++) {\r\n            require(\r\n                cardId[i] < 1000,\r\n                \"The Card Number Selected Does Not Exist\"\r\n            );\r\n            require(\r\n                maxSupply - cardId.length >= 0,\r\n                \"Sorry, There Aren't Anymore Available Cards\"\r\n            );\r\n            require(\r\n                !exists(cardId[i]),\r\n                \"A Card Selected Already Belongs To Someone Else\"\r\n            );\r\n\r\n            _mint(_addresses[i], cardId[i], 1, \"0x\");\r\n            maxSupply = maxSupply - cardId.length;\r\n            mintedCards.push(cardId[i]);\r\n        }\r\n    }\r\n\r\n    function editMinMaxCardId(\r\n        uint256 eventNumber,\r\n        uint256 _newMin,\r\n        uint256 _newMax\r\n    ) external onlyOwner {\r\n        require(\r\n            _newMin >= 0 && _newMin < 999,\r\n            \"Your new minimum is either below 0 or over 999\"\r\n        );\r\n        require(\r\n            _newMax >= 0 && _newMax < 999,\r\n            \"Your new maximum is either below 0 or over 999\"\r\n        );\r\n        require(\r\n            _newMin != _newMax,\r\n            \"Your minimum and maximum cannot be the same number\"\r\n        );\r\n\r\n        saleEvents[eventNumber].minCardId = _newMin;\r\n        saleEvents[eventNumber].maxCardId = _newMax;\r\n    }\r\n\r\n    function editSaleStatus(\r\n        uint256 eventNumber,\r\n        bool _isActive,\r\n        bool _isPreSale,\r\n        bool _isPublicSale\r\n    ) external onlyOwner {\r\n        require(eventNumber <= 4);\r\n        saleEvents[eventNumber].isActive = _isActive;\r\n        saleEvents[eventNumber].isPreSale = _isPreSale;\r\n        saleEvents[eventNumber].isPublicSale = _isPublicSale;\r\n    }\r\n\r\n    function alterMintLimit(uint256 newLimit) external onlyOwner {\r\n        mintLimit = newLimit;\r\n    }\r\n\r\n    function viewSaleStatus(uint256 eventNumber)\r\n        external\r\n        view\r\n        returns (\r\n            uint256 price,\r\n            bool isActive,\r\n            bool isPreSale,\r\n            bool isPublicSale,\r\n            uint256 minCardId,\r\n            uint256 maxCardId\r\n        )\r\n    {\r\n        price = saleEvents[eventNumber].price;\r\n        isActive = saleEvents[eventNumber].isActive;\r\n        isPreSale = saleEvents[eventNumber].isPreSale;\r\n        isPublicSale = saleEvents[eventNumber].isPublicSale;\r\n        minCardId = saleEvents[eventNumber].minCardId;\r\n        maxCardId = saleEvents[eventNumber].maxCardId;\r\n        return (price, isActive, isPreSale, isPublicSale, minCardId, maxCardId);\r\n    }\r\n\r\n    function editSalePrice(uint256 eventNumber, uint256 _newPriceInWei)\r\n        external\r\n        onlyOwner\r\n    {\r\n        require(eventNumber <= 4);\r\n        saleEvents[eventNumber].price = _newPriceInWei;\r\n    }\r\n\r\n    function batchAddToWhitelist(\r\n        address[] memory _addresses,\r\n        uint256 eventNumber\r\n    ) external onlyOwner {\r\n        for (uint256 i = 0; i < _addresses.length; i++) {\r\n            saleEvents[eventNumber].whitelist[_addresses[i]] = true;\r\n        }\r\n    }\r\n\r\n    function batchRemoveFromWhitelist(\r\n        address[] memory _addresses,\r\n        uint256 eventNumber\r\n    ) external onlyOwner {\r\n        for (uint256 i = 0; i < _addresses.length; i++) {\r\n            require(\r\n                saleEvents[eventNumber].whitelist[_addresses[i]] != false,\r\n                \"One of these users is already not on WL. Use the Check WhiteList function to solve\"\r\n            );\r\n            saleEvents[eventNumber].whitelist[_addresses[i]] = false;\r\n        }\r\n    }\r\n\r\n    function withdraw(address payable _to) public onlyOwner {\r\n        require(_to != address(0), \"Token cannot be zero address.\");\r\n        _to.transfer(address(this).balance);\r\n    }\r\n\r\n    function setTokenURI(string memory _newURI) public onlyOwner {\r\n        baseURI = _newURI;\r\n    }\r\n\r\n    function contractURI() public pure returns (string memory) {\r\n        return \"ipfs://QmcCVnnRiy7TAgREHxKJJrcZLCSBmz2fYm1Lum5vjVY6Ge\";\r\n    }\r\n\r\n    //Misc Functions\r\n\r\n    function uri(uint256 _tokenId)\r\n        public\r\n        view\r\n        override\r\n        returns (string memory)\r\n    {\r\n        if (bytes(_URIS[_tokenId]).length != 0) {\r\n            return string(_URIS[_tokenId]);\r\n        }\r\n        return\r\n            string(\r\n                abi.encodePacked(baseURI, Strings.toString(_tokenId), \".json\")\r\n            );\r\n    }\r\n\r\n    function _beforeTokenTransfer(\r\n        address operator,\r\n        address from,\r\n        address to,\r\n        uint256[] memory ids,\r\n        uint256[] memory amounts,\r\n        bytes memory data\r\n    ) internal override(ERC1155, ERC1155Supply) {\r\n        super._beforeTokenTransfer(operator, from, to, ids, amounts, data);\r\n    }\r\n\r\n    fallback() external payable {}\r\n\r\n    receive() external payable {}\r\n}\r\n",
  "sourcePath": "C:\\Users\\Adegb\\Documents\\Programming\\Blockchain\\book-of-ye\\contracts\\BooksOfYe.sol",
  "compiler": {
    "name": "solc",
    "version": "0.8.11+commit.d7f03943.Emscripten.clang"
  },
  "schemaVersion": "3.4.4",
  "updatedAt": "2022-02-26T22:17:31.735Z",
  "networkType": "ethereum",
  "devdoc": {
    "kind": "dev",
    "methods": {
      "balanceOf(address,uint256)": {
        "details": "See {IERC1155-balanceOf}. Requirements: - `account` cannot be the zero address."
      },
      "balanceOfBatch(address[],uint256[])": {
        "details": "See {IERC1155-balanceOfBatch}. Requirements: - `accounts` and `ids` must have the same length."
      },
      "exists(uint256)": {
        "details": "Indicates whether any token exist with a given id, or not."
      },
      "isApprovedForAll(address,address)": {
        "details": "See {IERC1155-isApprovedForAll}."
      },
      "owner()": {
        "details": "Returns the address of the current owner."
      },
      "renounceOwnership()": {
        "details": "Leaves the contract without owner. It will not be possible to call `onlyOwner` functions anymore. Can only be called by the current owner. NOTE: Renouncing ownership will leave the contract without an owner, thereby removing any functionality that is only available to the owner."
      },
      "safeBatchTransferFrom(address,address,uint256[],uint256[],bytes)": {
        "details": "See {IERC1155-safeBatchTransferFrom}."
      },
      "safeTransferFrom(address,address,uint256,uint256,bytes)": {
        "details": "See {IERC1155-safeTransferFrom}."
      },
      "setApprovalForAll(address,bool)": {
        "details": "See {IERC1155-setApprovalForAll}."
      },
      "supportsInterface(bytes4)": {
        "details": "See {IERC165-supportsInterface}."
      },
      "totalSupply(uint256)": {
        "details": "Total amount of tokens in with a given id."
      },
      "transferOwnership(address)": {
        "details": "Transfers ownership of the contract to a new account (`newOwner`). Can only be called by the current owner."
      }
    },
    "version": 1
  },
  "userdoc": {
    "kind": "user",
    "methods": {},
    "version": 1
  }
}